S0160000446F6F725F4C6F636B65725F76322E73726563B4
S11300000C9441000C945E000C945E000C945E0011
S11300100C945E000C945E000C945E000C945E00E4
S11300200C945E000C945E000C945E000C945E00D4
S11300300C945E000C945E000C945E000C945E00C4
S11300400C945E000C945E000C945E000C945E00B4
S11300500C945E0091009900B700F300FB000A01C4
S113006003011403F602F802FA02FC02FE02000382
S113007002030403060308030A030C030E0310031C
S1130080120311241FBECFE5D4E0DEBFCDBF11E0C3
S1130090A0E6B0E0ECEFF6E002C005900D92AC30C3
S11300A0B107D9F721E0ACE0B1E001C01D92A6315F
S11300B0B207E1F70E9466000C947C030C940000E4
S11300C0A69A0895AE9A0895AE98089510920C01D8
S11300D00E947F020E9428030E946A030E9460001B
S11300E00E94A202893679F481E080930C01D0E069
S11300F0C1E012E005E06894EE24E2F80F2EF3E08C
S1130100FF2EF02D03C010920C01F1CF80910C0151
S113011090E0FC0187309105E0F7E65DFF4F0C9419
S1130120760381E50E9498020E943C01C0930C0171
S1130130EDCF82E50E9498020E94930183E50E941C
S113014098020E94E501843531F40E94EE01109377
S11301500C01D0E0DBCF8535C9F6DF5FD33011F475
S11301600E9464020E940002C0930C01CFCF86E576
S11301700E9498020E941202813361F483EC99E098
S11301800197F1F700C0000081E30E949802F09209
S11301900C01BCCF823361F483EC99E00197F1F751
S11301A000C0000082E30E949802E0920C01AECFEE
S11301B0833319F400930C01A9CF0E94240340E077
S11301C060EC80E690E00E9457039FE32DE083E01B
S11301D0915020408040E1F700C000000E942403B9
S11301E010930C0193CF88E50E9498020E943C0270
S11301F0C0930C018BCF89E50E9498020E945002A3
S1130200C0930C0183CF0E9464020E946E030E947B
S113021074037CCF87E50E9498020E9424039FE91F
S113022026E881E0915020408040E1F700C00000C2
S11302300E9493010E94A202843529F40E94EE01D7
S113024010920C0163CFDF5F0E940002D33011F4DF
S11302500E94640240E060EC8DE690E00E94570347
S11302609FE32DE083E0915020408040E1F700C0FF
S113027000000E9424034ACFCF9340E060EC8EE755
S113028090E00E94570385E90E941903109211011E
S1130290C0E00E94A6020E94EA02EC2FF0E0EE5EAB
S11302A0FE4F80838AE20E943703E0911101EF5FE1
S11302B0E0931101E43010F4CE2FEBCF0E9424031D
S11302C02FE986E891E0215080409040E1F700C09A
S11302D0000010921101E0E0F0E0EE5EFE4F80813C
S11302E090E00E94980283ED90E30197F1F700C03B
S11302F00000E0911101EF5FE0931101E43060F33D
S113030040E060EC8FE890E00E9457039FE32DE00B
S113031083E0915020408040E1F700C000000E943B
S11303202403CF910895CF9340E060EC8DE690E0F4
S11303300E94570385E90E94190310921101C0E03D
S11303400E94A6020E94EA02EC2FF0E0E35FFE4F57
S113035080838AE20E943703E0911101EF5FE0930A
S11303601101E43010F4CE2FEBCF80910D0190E019
S11303700E94980283ED90E30197F1F700C000001A
S113038080910E0190E00E94980283ED90E3019722
S1130390F1F700C0000080910F0190E00E949802E4
S11303A083ED90E30197F1F700C000008091100104
S11303B090E00E94980283ED90E30197F1F700C06A
S11303C000000E942403CF9108950E94A202E5EA4E
S11303D0FEE03197F1F700C00000089541E060ECC1
S11303E080EA90E00E9457032FE38DE093E02150D0
S11303F080409040E1F700C000000E94240308956B
S113040041E060EC8FEA90E00E9457032FE38DE017
S113041093E0215080409040E1F700C000000E942A
S113042024030895CF9340E060E88EEB90E00E94AF
S1130430570342E060EC8CEC90E00E94570342E0EA
S113044060E988ED90E00E94570342E060ED85EE9C
S113045090E00E9457030E94A6020E94EA02C82F5D
S113046090E00E94980287E893E10197F1F700C0B9
S113047000008C2FCF9108950E94240340E060EC8B
S113048084EF90E00E9457032FE38DE093E0215026
S113049080409040E1F700C000000E9424030895CA
S11304A00E94240340E060EC8FEF90E00E94570329
S11304B02FE38DE093E0215080409040E1F700C0AD
S11304C000000E94240308950E94240383EF90E017
S11304D00E9442030E9462000E94700387EA91E630
S11304E00197F1F700C000000E9464000E947203AB
S11304F087EA91E60197F1F700C00000EBCF599825
S11305008CE089B9539A549A529880B5806880BD1A
S113051080B58F7E80BD80B58F7D80BD80B5877F9F
S113052080BD80B5846080BD80B5826080BD089543
S11305305D9BFECF8CB983EC99E00197F1F700C085
S1130540000008955F9BFECF8CB1089587B3807F30
S113055087BB80EF88BB80E061E070E0A5E0F0E05D
S1130560B0E09B01082E02C0220F331F0A94E2F769
S113057027BBB49B10C02A2F3F2F9CEF920F46B38A
S1130580E22F50E0022E02C0559547950A94E2F7F7
S113059040FD16C002C0E4E090E021E030E0A90193
S11305A002C0440F551FEA95E2F726B330E0242336
S11305B03523232BD1F38F5F990F990F890F08955A
S11305C02F5F3F4F28303105C1F68F5F843048F2EA
S11305D08B2FC7CF90E0FC013197E031F10520F477
S11305E0EF5CFF4F0C94760380E0089584E3089554
S11305F081E3089583E6089588E3089585E30895E3
S113060082E3089580E3089589E3089586E30895D5
S113061083E308958DE3089585E208958AE20895B9
S11306208DE208958BE2089587E30895A89AA89827
S113063008958BBBAA980E94160381EE94E001975B
S1130640F1F700C00000089581E00E9419030895A5
S11306508FEF8ABB87E084BBA998AA980E942403E1
S113066088E30E9419038EE00E94190308958BBB4E
S1130670AA9A0E94160381EE94E00197F1F700C054
S1130680000008951F93CF93DF93EC0188818823A2
S113069051F010E00E9437031F5FFE01E10FF11DCE
S11306A080818111F7CFDF91CF911F910895CF936E
S11306B0DF93EC01862F840F0E94190381EE94E0EE
S11306C00197F1F700C00000CE010E944203DF91C0
S11306D0CF910895A59AA39AA49A0895AD980895E0
S11306E0AB9A0895AB980895AC980895EE0FFF1F48
S10F06F00590F491E02D0994F894FFCFDC
S11306FC77726F6E672063686F69636500456E740B
S113070C6572207061737320616761696E00506C4F
S113071C7A20656E74657220612070617373005564
S113072C72205061737320497320536176656400A1
S113073C52696768742050415353574F52440057C1
S113074C726F6E672050415353574F5244004966A1
S113075C20752077616E7420746F3A0031204F70CD
S113076C656E20646F6F72003220436C6F7365206A
S113077C646F6F720033204368616E67652070612B
S113078C73732E00444F4F52204F50454E44004437
S10F079C4F4F5220434C4F534544000083
S9030000FC
